:100000000C943B000C9458000C9458000C9458002D
:100010000C9458000C9458000C9458000C94580000
:100020000C9458000C9458000C9458000C945800F0
:100030000C9458000C9458000C9458000C945800E0
:100040000C9458000C9458000C9458000C945800D0
:100050000C9458000C942B020C9458000C945800EB
:100060000C9458000C945800B900BB00BD00BF00B0
:10007000C100C300C50011241FBECFEFD8E0DEBF12
:10008000CDBF11E0A0E0B1E0EEECFAE002C00590D7
:100090000D92A231B107D9F721E0A2E1B1E001C090
:1000A0001D92AA31B207E1F70E94DC010C946505AC
:1000B0000C940000E0ECF0E080818823ECF7809164
:1000C000C60090E0089520918000909181006F3FDC
:1000D00011F0987F962B8F3F69F083FF02C09061EB
:1000E00001C09F7E82FF02C0986001C0977F83702D
:1000F0002C7F282B209380009093810080E008952E
:10010000B29A80E008952FB7F89490938900809375
:1001100088002FBF80E008956F3F51F0ECE7F0E0DA
:10012000908120E4629FB00111249F73692B60834A
:100130004F3F31F0EAE7F0E09081987F492B408310
:100140008F3F69F1811107C0EAE7F0E080818F7D80
:10015000808380E0089590917B00292F287F90E094
:10016000FC013297E730F105E0F4EC5CFF4F0C94B2
:100170007E0221600BC0226009C0236007C024609A
:1001800005C0256003C0266001C0276020937B0066
:10019000EAE7F0E080818062808380E0089580E07B
:1001A000089587E00895ECE7F0E09081907F892B37
:1001B000808380E00895EEE7F0E09081892B8083D2
:1001C00080E00895811106C0ECE7F0E08081806254
:1001D000808305C0ECE7F0E080818F7D808380E044
:1001E0000895EAE7F0E080818068808380E00895E8
:1001F000EAE7F0E080818860808380E008958F9254
:100200009F92AF92BF92CF92DF92EF92FF920F93A5
:100210004A015B019091C0009091C1009091C20091
:100220009FEFE91621F091E09E1508F47DC00F3F85
:1002300019F0033008F07AC02F3F19F0253008F08C
:1002400077C08F3F89F48091C2008295869586950C
:10025000837021F0833009F46FC005C08091C00025
:100260008695817001C080E09FEF89169906A906E6
:10027000B90609F45FC08130B9F018F0843039F163
:1002800039C060E472E48FE090E0A50194010E941F
:100290005C02DA01C9010197A109B1094C015D01B4
:1002A000C12CD12C76012EC060E874E88EE190E07C
:1002B000A50194010E945C02DA01C9010197A1091C
:1002C000B1094C015D01C12CD12C76011BC060E04D
:1002D00072E18AE790E0A50194010E945C02DA01D4
:1002E000C9010197A109B1094C015D01C12CD12CB3
:1002F000760108C0812C912CA12CB12CC12CD12CC1
:10030000E12CF12C282D392D4A2D5B2D6C2D7D2DC6
:100310008E2D9F2D08E00E9486022F702093C5002D
:100320008092C40080E00FC087E00DC085E00BC064
:1003300085E009C080E007C08FEF88169806A80600
:10034000B80629F680E00F91FF90EF90DF90CF90F4
:10035000BF90AF909F908F900895E1ECF0E0808186
:100360008860808380E00895E1ECF0E08081806423
:10037000808380E0089580E091E09093190180935C
:1003800018019093170180931601909315018093A3
:10039000140180E008958091C00085FB882780F9D2
:1003A0000895CF93C82F0E94CB018823E1F3C09317
:1003B000C60080E0CF91089581E084B940E061E01B
:1003C00086E00E948C0080E00E94E20080E00E94B3
:1003D000D30080E00E94DB000E94F1000E94F80040
:1003E000E12C00E023E040E855E260E070E080E0CE
:1003F0000E94FF000E94B4010E94AD010E94BB0157
:1004000061E084E00E9463008AE999E30E9483002E
:10041000809113018D7F80931301809113018E7F52
:10042000809313017894CEE0D1E08091130180FF96
:10043000FCCF809112011F928F93DF93CF930E9484
:10044000A202809113018E7F809313010F900F9071
:100450000F900F90EACF1F920F920FB60F921124B8
:100460002F933F934F935F936F937F938F939F93BC
:10047000AF93BF93EF93FF9395B181E0892785B93F
:1004800080917900809312018091130181608093A3
:1004900013010E948000FF91EF91BF91AF919F9156
:1004A0008F917F916F915F914F913F912F910F901D
:1004B0000FBE0F901F901895A1E21A2EAA1BBB1B0E
:1004C000FD010DC0AA1FBB1FEE1FFF1FA217B30720
:1004D000E407F50720F0A21BB30BE40BF50B661F36
:1004E000771F881F991F1A9469F7609570958095FA
:1004F00090959B01AC01BD01CF010895EE0FFF1F48
:100500000590F491E02D099497FB10F816940008DB
:100510000F93083098F00850232F342F452F562F73
:10052000672F782F892F902DF4CF05949795879575
:100530007795679557954795379527950A95AAF723
:100540000F910895A0E0B0E0E8EAF2E00C943E05D7
:10055000FE01359661917191AF01809116019091E4
:1005600017010E94B602E2E00C945A05ACE0B0E03C
:10057000ECEBF2E00C942E057C016B018A01FC018E
:1005800017821682838181FFBDC1CE0101964C0185
:10059000F7019381F60193FD859193FF81916F019E
:1005A000882309F4ABC1853239F493FD859193FF1B
:1005B00081916F01853229F4B70190E00E949E0479
:1005C000E7CF512C312C20E02032A0F48B3269F09F
:1005D00030F4803259F0833269F420612CC08D32BE
:1005E00039F0803339F4216026C02260246023C0B2
:1005F000286021C027FD27C030ED380F3A3078F44D
:1006000026FF06C0FAE05F9E300D1124532E13C062
:100610008AE0389E300D1124332E20620CC08E32B9
:1006200021F426FD6BC1206406C08C3611F42068CD
:1006300002C0883641F4F60193FD859193FF8191C4
:100640006F018111C1CF982F9F7D9554933028F46D
:100650000C5F1F4FFFE3F9830DC0833631F0833702
:1006600071F0833509F05BC022C0F8018081898375
:100670000E5F1F4F44244394512C540115C0380180
:10068000F2E06F0E711CF801A080B18026FF03C05C
:10069000652D70E002C06FEF7FEFC5012C870E94CF
:1006A00093042C0183012C852F77222E17C038014B
:1006B000F2E06F0E711CF801A080B18026FF03C02C
:1006C000652D70E002C06FEF7FEFC5012C870E949F
:1006D00088042C012C852068222E830123FC1BC05A
:1006E000832D90E048165906B0F4B70180E290E0FF
:1006F0000E949E043A94F4CFF50127FC859127FED1
:1007000081915F01B70190E00E949E0431103A94FC
:10071000F1E04F1A51084114510471F7E5C08436D5
:1007200011F0893639F5F80127FF07C06081718122
:10073000828193810C5F1F4F08C06081718188277F
:1007400077FD8095982F0E5F1F4F2F76B22E97FF63
:1007500009C090958095709561957F4F8F4F9F4F01
:100760002068B22E2AE030E0A4010E94D004A82E16
:10077000A81844C0853729F42F7EB22E2AE030E035
:1007800025C0F22FF97FBF2E8F36C1F018F48835BF
:1007900079F0B4C0803719F0883721F0AFC02F2F1F
:1007A0002061B22EB4FE0DC08B2D8460B82E09C01E
:1007B00024FF0AC09F2F9660B92E06C028E030E0C3
:1007C00005C020E130E002C020E132E0F801B7FED0
:1007D00007C060817181828193810C5F1F4F06C0C9
:1007E0006081718180E090E00E5F1F4FA4010E9444
:1007F000D004A82EA818FB2DFF77BF2EB6FE0BC085
:100800002B2D2E7FA51450F4B4FE0AC0B2FC08C0F4
:100810002B2D2E7E05C07A2C2B2D03C07A2C01C0E7
:10082000752C24FF0DC0FE01EA0DF11D808180337F
:1008300011F4297E09C022FF06C07394739404C08A
:10084000822F867809F0739423FD13C020FF06C021
:100850005A2C731418F4530C5718732C731468F42F
:10086000B70180E290E02C870E949E0473942C854F
:10087000F5CF731410F4371801C0312C24FF12C0C7
:10088000B70180E390E02C870E949E042C8522FF14
:1008900017C021FF03C088E590E002C088E790E020
:1008A000B7010CC0822F867859F021FD02C080E28A
:1008B00001C08BE227FD8DE2B70190E00E949E040B
:1008C000A51438F4B70180E390E00E949E045A9486
:1008D000F7CFAA94F401EA0DF11D8081B70190E0F1
:1008E0000E949E04A110F5CF332009F451CEB70128
:1008F00080E290E00E949E043A94F6CFF701868150
:10090000978102C08FEF9FEF2C96E2E10C944A058D
:10091000FC010590615070400110D8F780959095CA
:100920008E0F9F1F0895FC016150704001900110CF
:10093000D8F7809590958E0F9F1F08950F931F9362
:10094000CF93DF93182F092FEB018B8181FD03C01B
:100950008FEF9FEF20C082FF10C04E815F812C81FE
:100960003D81421753077CF4E881F9819F012F5F95
:100970003F4F39832883108306C0E885F985812F8E
:100980000995892B29F72E813F812F5F3F4F3F83A8
:100990002E83812F902FDF91CF911F910F9108957A
:1009A000FA01AA27283051F1203181F1E8946F93A0
:1009B0006E7F6E5F7F4F8F4F9F4FAF4FB1E03ED046
:1009C000B4E03CD0670F781F891F9A1FA11D680FE4
:1009D000791F8A1F911DA11D6A0F711D811D911D17
:1009E000A11D20D009F468943F912AE0269F11248C
:1009F0003019305D3193DEF6CF010895462F4770F0
:100A0000405D4193B3E00FD0C9F7F6CF462F4F704A
:100A1000405D4A3318F0495D31FD4052419302D0A8
:100A2000A9F7EACFB4E0A69597958795779567954E
:100A3000BA95C9F700976105710508959B01AC014E
:100A40000A2E06945795479537952795BA95C9F775
:100A5000620F731F841F951FA01D08952F923F9250
:100A60004F925F926F927F928F929F92AF92BF92BE
:100A7000CF92DF92EF92FF920F931F93CF93DF936A
:100A8000CDB7DEB7CA1BDB0B0FB6F894DEBF0FBEC7
:100A9000CDBF09942A88398848885F846E847D8414
:100AA0008C849B84AA84B984C884DF80EE80FD8016
:100AB0000C811B81AA81B981CE0FD11D0FB6F8948C
:0E0AC000DEBF0FBECDBFED010895F894FFCF4D
:100ACE000000000300000000D1015A000000256460
:020ADE000A000C
:00000001FF
